10000ANNA      ARCELLO   200801100000000000100000
10005BARBARA   PALMER    200802100000000000100025
10010CINDY     CRAWFORD  200803100000000000100011
10015DEBBIE    DOER      200904100000000000100050
10020EVA       MENDES    200905100000000000100000
20000FRAN      ADAMS     200906150000000000041075
20005GINA      LAMORA    201007150000000000032022
20010HEIDI     HUST      201008150000000000023000
20015ISABELLE  GREEN     201009150000000000014000
20020JEANNIE   FISHER    201110150000000000005044
30000KENDRA    HAMILTON  201111200000000000111030
30005LINA      QUENNESSEN201112200000000000122000
30010MARY      DESONI    201201200000000000133075
30015NAOMI     WATTS     201202200000000000144000
30020ORETHA    FIGUEROA  201203200000000000155010
