10000ANNA      ARCELLO   200801100001000000090000
10005BARBARA   PALMER    200802100002000000080025
10010CINDY     CRAWFORD  200803100003001100070000
10015DEBBIE    DOER      200904100004000000060050
10020EVA       MENDES    200905100005000000050000
20000FRAN      ADAMS     200906150000100000040075
20005GINA      LAMORA    201007150000202200030000
20010HEIDI     HUST      201008150000300000020000
20015ISABELLE  GREEN     201009150000400000010000
20020JEANNIE   FISHER    201110150000504400000000
30000KENDRA    HAMILTON  201111200001100000100030
30005LINA      QUENNESSEN201112200001200000110000
30010MARY      DESONI    201201200001305500120020
30015NAOMI     WATTS     201202200001400000130000
30020ORETHA    FIGUEROA  201203200001500000140010
