10001JEANIE    FISHER    001000000000019231
10002ANNA      ARCELLO   004000000000076923
10003ANNETTA   FARLEY    006000000000115385
