10001JEANIE    FISHER    001000000000000000
10002ANNA      ARCELLO   004000000000000000
10003ANNETTA   FARLEY    006000000000000000
